:1000000014C024C022C021C020C01FC039C11DC0DF
:100010001CC01BC01AC019C018C017C016C015C01C
:1000200014C013C012C011C010C011241FBECFE5F0
:10003000D1E0DEBFCDBF20E0A0E6B0E001C01D9260
:10004000A836B207E1F73FD142C1DACF1F920F9233
:100050000FB60F9211248F939F9381E090E09093BD
:100060006300809362009F918F910F900FBE0F905D
:100070001F9018957894109267001092660087B3CD
:100080008E6187BB8CE088BB8BB780648BBF85B7E4
:10009000836085BF10BE85E083BF12BE89B78260D2
:1000A00089BF109265001092640078940895809141
:1000B0006600909167008230910509F440C028F4F1
:1000C000009769F00197F1F09BC08430910509F425
:1000D0005FC008F44BC0059709F478C091C08CE06C
:1000E00088BB80916200909163008130910509F096
:1000F0008BC0109265001092640010926100109203
:1001000060005FC080916400909165000397BCF02F
:1001100080916000909161008E31910511F0CC9733
:1001200071F41092650010926400109261001092B8
:10013000600082E090E0909367008093660082E028
:1001400088BB8091640090916500181619060CF028
:100150005BC080E188BB1092650010926400109231
:1001600061001092600083E090E02BC080916400F9
:10017000909165000A970CF447C0109265001092A8
:100180006400109261001092600084E090E019C059
:1001900080916400909165000397B4F180916000B4
:1001A000909161008E31910511F0CC9769F5109214
:1001B000650010926400109261001092600085E06A
:1001C00090E09093670080936600089588E088BB74
:1001D000809164009091650018161906ACF4109295
:1001E00065001092640010926100109260001092FD
:1001F00067001092660010926300109262000895EA
:100200001092670010926600089520916600309168
:10021000670080916000909161002130310521F0EC
:100220002430310549F011C08E31910511F0CC9781
:1002300061F498B384E007C08E31910511F0CC973A
:1002400021F498B380E1892788BB80916000909168
:1002500061008F33910571F4809164009091650085
:100260000196909365008093640010926100109253
:100270006000089501969093610080936000089556
:100280001F920F920FB60F9211242F933F934F930B
:100290005F936F937F938F939F93AF93BF93EF93EE
:1002A000FF93B3DFFF91EF91BF91AF919F918F913A
:1002B0007F916F915F914F913F912F910F900FBE62
:1002C0000F901F901895D6DE7894F1DEFECFF8944B
:0202D000FFCF5E
:00000001FF
