:100000000C944D010C9475010C9475010C947501C0
:100010000C9475010C9475010C9475010C94750188
:100020000C9475010C9475010C9475010C94750178
:100030000C9475010C9475010C9475010C94750168
:100040000C946A050C9475010C94DA050C94B405B3
:100050000C9475010C9475010C9475010C94750148
:100060000C9475010C947501000000000000005F05
:1000700000000007000700147F147F14242A7F2A41
:10008000122313086462364955225000050300000C
:10009000001C2241000041221C0014083E081408E4
:1000A000083E0808005030000008080808080060F2
:1000B00060000020100804023E5149453E00427F86
:1000C000400042615149462141454B311814127F8D
:1000D0001027454545393C4A494930017109050316
:1000E0003649494936064949291E0036360000007E
:1000F0005636000008142241001414141414004150
:100100002214080201510906324979413E7E11113B
:10011000117E7F494949363E414141227F4141227A
:100120001C7F494949417F090909013E4149497AF2
:100130007F0808087F00417F41002040413F017F48
:10014000081422417F404040407F020C027F7F0420
:1001500008107F3E4141413E7F090909063E415159
:10016000215E7F09192946464949493101017F012C
:10017000013F4040403F1F2040201F3F4038403F4C
:100180006314081463070870080761514945430068
:100190007F41410002040810200041417F00040219
:1001A0000102044040404040000102040020545439
:1001B00054787F48444438384444442038444448C0
:1001C0007F3854545418087E0901020C5252523E92
:1001D0007F0804047800447D40002040443D007FB7
:1001E0001028440000417F40007C041804787C08FB
:1001F00004047838444444387C1414140808141453
:10020000187C7C080404084854545420043F44409B
:10021000203C4040207C1C2040201C3C4030403C86
:1002200044281028440C5050503C4464544C440022
:100230000836410000007F00000041360800100829
:100240000810080000000000000000080002010083
:100250000003040700000000000000000000000090
:10026000250028002B0000000000240027002A00A1
:10027000040404040404040402020202020203034C
:100280000303030301020408102040800102040854
:1002900010200102040810200C0611241FBECFEF0D
:1002A000D8E0DEBFCDBF11E0A0E0B1E0E2E1FDE1CA
:1002B00002C005900D92A434B107D9F722E0A4E45E
:1002C000B1E001C01D92A039B207E1F711E0CDE421
:1002D000D1E004C02197FE010E94810ECC34D107E9
:1002E000C9F70E94B8060C94870E0C94000090E0A9
:1002F000FC01EC57FD4F249180599D4FFC018491E6
:10030000882399F090E0880F991FFC01EA59FD4F6E
:10031000A591B491FC01E45AFD4F859194918FB75A
:10032000F894EC91E22BEC938FBF089590E0FC01E0
:10033000E85BFD4F2491FC01EC57FD4F3491FC012B
:10034000E059FD4FE491EE23C9F0222339F0233028
:1003500001F1A8F4213019F1223029F1F0E0EE0F7B
:10036000FF1FE45AFD4FA591B4918FB7F894EC911B
:10037000611126C030953E233C938FBF08952730EE
:10038000A9F02830C9F0243049F7809180008F7D92
:1003900003C0809180008F7780938000DFCF84B589
:1003A0008F7784BDDBCF84B58F7DFBCF8091B0008C
:1003B0008F778093B000D2CF8091B0008F7DF9CF3E
:1003C0003E2BDACF8E50806480937C0080917A003F
:1003D000806480937A0080917A0086FDFCCF8091C2
:1003E00078009091790008953FB7F8948091550175
:1003F00090915601A0915701B091580126B5A89B44
:1004000005C02F3F19F00196A11DB11D3FBFBA2FA6
:10041000A92F982F8827BC01CD01620F711D811D66
:10042000911D42E0660F771F881F991F4A95D1F7EB
:1004300008958F929F92AF92BF92CF92DF92EF92E8
:10044000FF924B015C010E94F4016B017C010E9450
:10045000F4016C197D098E099F09683E734081057E
:100460009105A8F321E0821A9108A108B10888EE4D
:10047000C80E83E0D81EE11CF11C81149104A10474
:10048000B10429F7FF90EF90DF90CF90BF90AF902D
:100490009F908F900895AF92BF92CF92DF92EF928C
:1004A000FF920F931F93CF93DF936C017B018B011E
:1004B000040F151FEB015E01AE18BF08C017D1076E
:1004C00059F06991D601ED91FC910190F081E02DF8
:1004D000C6010995892B79F7C501DF91CF911F914D
:1004E0000F91FF90EF90DF90CF90BF90AF90089565
:1004F000FC01538D448D252F30E0842F90E0821B2A
:10050000930B541710F0CF96089501970895FC01AE
:10051000918D828D981761F0A28DAE0FBF2FB11D06
:100520005D968C91928D9F5F9F73928F90E008955E
:100530008FEF9FEF0895FC01918D828D981731F018
:10054000828DE80FF11D858D90E008958FEF9FEF6C
:100550000895FC01918D228D892F90E0805C9F4F42
:10056000821B91098F739927089589E591E00E9474
:10057000A90221E0892B09F420E0822F089580E070
:1005800090E0892B29F00E94B50281110C940000A3
:100590000895FC01A48DA80FB92FB11DA35ABF4F18
:1005A0002C91848D90E001968F739927848FA68972
:1005B000B7892C93A089B1898C91837080648C93C6
:1005C000938D848D981306C00288F389E02D808175
:1005D0008F7D80830895EF92FF920F931F93CF93A7
:1005E000DF93EC0181E0888F9B8D8C8D98131AC06E
:1005F000E889F989808185FF15C09FB7F894EE8955
:10060000FF896083E889F9898081837080648083B1
:100610009FBF81E090E0DF91CF911F910F91FF90FC
:10062000EF900895F62E0B8D10E00F5F1F4F0F73A4
:100630001127E02E8C8D8E110CC00FB607FCFACF5F
:10064000E889F989808185FFF5CFCE010E94C90232
:10065000F1CFEB8DEC0FFD2FF11DE35AFF4FF08230
:100660009FB7F8940B8FEA89FB8980818062CFCF96
:10067000CF93DF93EC01888D8823B9F0AA89BB89D9
:10068000E889F9898C9185FD03C0808186FD0DC0C4
:100690000FB607FCF7CF8C9185FFF2CF808185FFE5
:1006A000EDCFCE010E94C902E9CFDF91CF9108952D
:1006B000089590E080E00895EF92FF920F931F93CA
:1006C000CF93DF93EC01042F8E810E94960160E0AE
:1006D00088850E949601FC80ED8018E0602F661FDF
:1006E0006627661F8E2D0E949601000F61E08F2DF8
:1006F0000E94960160E08F2D0E949601115071F7C3
:1007000061E08885DF91CF911F910F91FF90EF906D
:100710000C949601CF93DF93CAEFD1E01C8690E052
:100720006B8529E3629F612D1124669570E06F5FF0
:100730007F4F0E94520E8D8740E860E0CE010E94FC
:100740005C034D85406460E0CE01DF91CF910C9455
:100750005C03FB0101900020E9F73197AF01461BD4
:10076000570BDC01ED91FC910280F381E02D09949F
:100770008F929F92AF92BF92EF92FF920F931F932F
:10078000CF93DF93CDB7DEB7A1970FB6F894DEBF56
:100790000FBECDBF7C01FA01CB0119A2223008F4B3
:1007A0002AE08E010F5D1F4F822E912CB12CA12CBF
:1007B000BF01A50194010E94DE0BF901CA016A3054
:1007C0000CF5605DD8016E938D01232B242B252B16
:1007D00079F790E080E0109721F0BD01C7010E94F9
:1007E000A903A1960FB6F894DEBF0FBECDBFDF916F
:1007F000CF911F910F91FF90EF90BF90AF909F907E
:100800008F900895695CDECF2F923F924F925F9256
:100810006F927F928F929F92AF92BF92CF92DF9210
:10082000EF92FF921F93CF93DF93EC016A017B015C
:10083000722EAB019601CB01B6010E944D0E6EE106
:1008400071E0811126C046015701E894B7F82FEFF7
:100850003FEF4FE75FE7C501B4010E944D0E8111E4
:100860000CC02FEF3FEF4FE75FE7C501B4010E94D7
:100870007C0C62E271E0181664F02FEF3FEF4FE757
:100880005FE4C701B6010E94DB0D1816B4F466E2FE
:1008900071E0CE01DF91CF911F91FF90EF90DF903B
:1008A000CF90BF90AF909F908F907F906F905F9010
:1008B0004F903F902F900C94A9032FEF3FEF4FE7FD
:1008C0005FECC701B6010E947C0C87FDE0CF20E001
:1008D00030E0A901C701B6010E947C0C312C212C0B
:1008E00087FF0DC0E881F9810190F081E02D6DE274
:1008F000CE0109951C01F7FAF094F7F8F09410E096
:1009000060E070E080E09FE3711641F020E030E0AD
:1009100040E251E40E94810C1F5FF6CFA7019601CF
:100920000E94100C2B013C010E94FA0C4B015C014F
:100930002AE0BC01A401CE010E94B8037C01E20CB4
:10094000F31C1123E1F1C501B4010E94290D9B01A3
:10095000AC01C301B2010E940F0C4B015C01E881A4
:10096000F9810190F081E02D6EE2CE010995E80E4B
:10097000F91E115020F120E030E040E251E4C501C1
:10098000B4010E94E00D2B013C010E94FA0C4B01C6
:10099000B12CA12C2AE0B501A401CE010E94B8031C
:1009A000E80EF91EC501B4010E94290D9B01AC019E
:1009B000C301B2010E940F0C4B015C01DACFC701E9
:1009C000DF91CF911F91FF90EF90DF90CF90BF907C
:1009D000AF909F908F907F906F905F904F903F90DF
:1009E0002F900895CF92DF92EF92FF920F931F9373
:1009F000CF93DF9300D000D01F92CDB7DEB767FD55
:100A000066C07C01862F90E0603208F44FC080976A
:100A100025E0289FB001299F700D112468597F4F50
:100A200045E050E0CE0101960E94B60B8E010F5FAB
:100A30001F4F680185E0C80ED11CF80141918F015C
:100A400061E0C7010E945C030C151D05B1F740E091
:100A500061E0C7010E945C03F701848590E006967F
:100A6000628570E00E94520E8487892B79F4858517
:100A700090E00196638529E3629F612D11246695BC
:100A800070E06F5F7F4F0E94520E858781E090E09B
:100A90000F900F900F900F900F90DF91CF911F91BB
:100AA0000F91FF90EF90DF90CF900895FC01379663
:100AB000EE0FFF1FEE0DFF1D0081118101151105C5
:100AC00009F0B7CF45E050E068E670E0ABCF90E0CA
:100AD00080E0DECF1F920F920FB60F9211242F935A
:100AE0003F938F939F93AF93BF938091F601909123
:100AF000F701A091F801B091F9013091540123E080
:100B0000230F2D3758F50196A11DB11D20935401D7
:100B10008093F6019093F701A093F801B093F90147
:100B20008091550190915601A0915701B0915801C3
:100B30000196A11DB11D8093550190935601A0937C
:100B40005701B0935801BF91AF919F918F913F9101
:100B50002F910F900FBE0F901F90189526E8230F2E
:100B60000296A11DB11DD2CF1F920F920FB60F9208
:100B700011242F933F934F935F936F937F938F93A2
:100B80009F93AF93BF93EF93FF9389E591E00E940A
:100B9000C902FF91EF91BF91AF919F918F917F918A
:100BA0006F915F914F913F912F910F900FBE0F90DA
:100BB0001F9018951F920F920FB60F9211242F932A
:100BC0008F939F93EF93FF93E0916901F0916A01F6
:100BD0008081E0916F01F091700182FD1BC09081D6
:100BE000809172018F5F8F7320917301821741F0A2
:100BF000E0917201F0E0E75AFE4F958F8093720109
:100C0000FF91EF919F918F912F910F900FBE0F90B9
:100C10001F9018958081F4CFE9E5F1E013821282EC
:100C200088EE93E0A0E0B0E084839583A683B78349
:100C300084E091E09183808385EC90E095878487C0
:100C400084EC90E09787868780EC90E0918B808B96
:100C500081EC90E0938B828B82EC90E0958B848B7F
:100C600086EC90E0978B868B118E128E138E148EED
:100C7000E4E5F2E08CE492E0978F868F80E592E0E5
:100C8000958F848F88E492E091A380A312AE12AA7C
:100C900013AA14AA15AA80E090E0AFE7B3E486ABEC
:100CA00097ABA0AFB1AF84E690E0A0E0B0E086A73C
:100CB00097A7A0ABB1AB118E108E81E090E0938F1F
:100CC000828F83AF80E090E0A0E7B1E480839183DE
:100CD000A283B38340E050E060E07FE34483558328
:100CE0006683778340E050E060E87FE34087518788
:100CF0006287738784879587A687B7878DEC9CEC7E
:100D0000ACE4BDE3808B918BA28BB38B80E090E051
:100D1000A0E2B1E4848B958BA68BB78B2FB7F894A8
:100D20008091F6019091F701A091F801B091F9013D
:100D30002FBF46A557A560A971A9841B950BA60BCB
:100D4000B70B82A393A3A4A3B5A3EAEFF1E01382A8
:100D5000128286E191E09183808383E0848384E042
:100D6000858385E0868386E0878387E08087089592
:100D7000CF93DF93CDB7DEB762970FB6F894DEBF9F
:100D80000FBECDBF789484B5826084BD84B5816088
:100D900084BD85B5826085BD85B5816085BD809146
:100DA0006E00816080936E001092810080918100BE
:100DB00082608093810080918100816080938100B6
:100DC000809180008160809380008091B100846078
:100DD0008093B1008091B00081608093B0008091D9
:100DE0007A00846080937A0080917A008260809398
:100DF0007A0080917A00816080937A0080917A00F5
:100E0000806880937A001092C100E0916901F091AE
:100E10006A0182E08083E0916501F09166011082B1
:100E2000E0916701F09168018FEC8083109271016D
:100E3000E0916D01F0916E0186E08083E0916B019D
:100E4000F0916C01808180618083E0916B01F09171
:100E50006C01808188608083E0916B01F0916C016E
:100E6000808180688083E0916B01F0916C018081CA
:100E70008F7D808388E00E9477018CE00E9477015B
:100E80008DE00E94770184E58093040280E38093E3
:100E90000502109203021092060210920702E8E087
:100EA000F2E080E4DF011D928A95E9F78091FE016E
:100EB0000E9477018091FF010E94770180910002DA
:100EC0000E947701809101020E94770180910202C5
:100ED0000E94770161E0809101020E94960161E029
:100EE000809102020E94960160E0809101020E94BE
:100EF000960164E670E080E090E00E94190261E0F3
:100F0000809101020E94960141E260E08AEF91E047
:100F10000E945C0343E160E08AEF91E00E945C0381
:100F20008091030242EC813039F440EE60E08AEFB8
:100F300091E00E945C0345E060E08AEF91E00E944E
:100F40005C0340E260E08AEF91E00E945C0349E0CC
:100F500060E08AEF91E00E945C0380E00E948A03D7
:100F60001A821982809105028695869586959091C0
:100F70000402899FC0011124E981FA81E817F90769
:100F800068F440E061E08AEF91E00E945C0329810F
:100F90003A812F5F3F4F3A832983E4CF80E00E945C
:100FA0008A0348E060E08AEF91E00E945C034CE035
:100FB00060E08AEF91E00E945C0364E670E080E00C
:100FC00090E00E94190240E860E08AEF91E00E9400
:100FD0005C0340E460E08AEF91E00E945C03412CF6
:100FE000512C8AEF682E82EC782E40928602509225
:100FF00087026092880270928902C12CD12C9AEFEC
:10100000E92E92E4F92EC0928A02D0928B02E092ED
:101010008C02F0928D0280918E024091720250916A
:1010200073025A834983882309F464C3DA018D90DB
:101030009D90AD90BC90A7019601C501B4010E949E
:10104000DB0D18163CF5E981FA81C082D182E2827B
:10105000F38280907A0290907B02A0907C02B09004
:101060007D02C0908A02D0908B02E0908C02F090BA
:101070008D02A7019601C501B4010E94DB0D18166F
:10108000DCF4C0927A02D0927B02E0927C02F09271
:101090007D0222C020E030E04AEF52ECC501B401ED
:1010A0000E947C0C87FFD5CFA981BA814D925D92B9
:1010B0006D927C921397CDCFC0908602D09087021C
:1010C000E0908802F0908902A7019601C501B40161
:1010D0000E947C0C87FDD5CF81E080938E02222474
:1010E00023948FE00E94E20140E28D3B92400CF499
:1010F00044E260E08AEF91E00E945C038EE00E948F
:10110000E2012CE330E0DC010E94660E2EEF33E0BA
:1011100040E050E00E94BF0BCA01B9016C5E7F4FF6
:101120008F4F9F4F0E942B0D69837A838B839C8303
:10113000609348027093490280934A0290934B0255
:1011400040914C0250914D0260914E0270914F02BD
:1011500080914C0181110EC080E090E0A8ECB1E4D8
:101160008093480190934901A0934A01B0934B01A9
:1011700020924C018FB7F8940091F6011091F7017D
:101180002091F8013091F9018FBF80914401909135
:101190004501A0914601B0914701081B190B2A0B8C
:1011A0003B0B043611052105310508F46AC08C5942
:1011B0009F4FAF4FBF4F8093440190934501A09341
:1011C0004601B0934701C0904801D0904901E0909A
:1011D0004A01F0904B01CB01BA010E94F30C072E9B
:1011E000000C880B990B0E942B0D20E030E048EC9E
:1011F00051E40E94E00D20E030E04FE753E40E940C
:10120000810C20E030E048EC52E40E94E00D20E048
:1012100030E04AE754E40E94810C20E030E040E2F4
:1012200051E40E94810C2AE037ED43E65FE30E941F
:10123000810C4B015C0120E030E048EC51E4C70137
:10124000B6010E940F0C27E137EB41ED58E30E94F5
:10125000E00D20E030E040EA50E40E94E00D9B0108
:10126000AC01C501B4010E940F0CA70196010E94B8
:10127000100C609348017093490180934A01909348
:101280004B018091480190914901A0914A01B09190
:101290004B018093500290935102A0935202B0935D
:1012A000530280918E02882309F435C18FB7F894D8
:1012B0002091F6013091F7014091F8015091F90128
:1012C0002D873E874F87588B8FBF809176029091F4
:1012D0007702A0917802B09179024D855E856F8585
:1012E0007889481B590B6A0B7B0B80918202909185
:1012F0008302A0918402B0918502481759076A07BA
:101300007B0708F408C1E0917002F09171024080FF
:10131000518062807380E0917402F0917502A301A4
:10132000920160817181828193810E940F0C6B0117
:101330007C0120917E0230917F0240918002509189
:101340008102C301B2010E940F0C6D837E838F83E3
:101350009887209164023091650240916602509115
:101360006702C701B6010E94E00D20917A02309118
:101370007B0240917C0250917D020E94100C4B0137
:101380005C0180927A0290927B02A0927C02B092E1
:101390007D0230908F0231101CC02091600230918C
:1013A000610240916202509163026D817E818F8162
:1013B00098850E94E00D9B01AC01C501B4010E941B
:1013C0000F0C60937A0270937B0280937C0290935F
:1013D0007D0280917A0290917B02A0917C02B09173
:1013E0007D0289879A87AB87BC8710918A0290918A
:1013F0008B029A8B00918C02A0918D02A98B212FD8
:10140000392F402F5A2F69857A858B859C850E94BC
:10141000DB0D18160CF034C1812F9A89A02FB989E1
:1014200080937A0290937B02A0937C02B0937D021A
:10143000332009F440C12091600230916102409153
:10144000620250916302C701B6010E94E00D6B0178
:101450007C01209168023091690240916A025091AA
:101460006B026D817E818F8198850E94E00D9B01CA
:10147000AC0160917A0270917B0280917C02909124
:101480007D020E940F0CA70196010E94100C6B01B7
:101490007C019B01AC01612F7A89802F99890E9480
:1014A0007C0C87FD18C010918602B0918702BA8B20
:1014B00000918802E0918902E98B212F3B2F402F78
:1014C0005E2FB601C7010E947C0C87FD04C01C2D55
:1014D000DA8A0E2DF98AE0917202F0917302812F5F
:1014E0009A89A02FB98980839183A283B383409284
:1014F0007E0250927F0260928002709281022D855E
:101500003E854F8558892093760230937702409329
:1015100078025093790281E00E948A036AE271E0C6
:101520008AEF91E00E94A90322E049815A816B81F0
:101530007C818AEF91E00E94040482E00E948A0389
:1015400065E371E08AEF91E00E94A90340914C02AB
:1015500050914D0260914E0270914F0222E08AEF4D
:1015600091E00E94040483E00E948A036BE371E02F
:101570008AEF91E00E94A9034091500250915102DC
:10158000609152027091530222E08AEF91E00E9432
:10159000040480E10E94E2018D3B92400CF43FC0C4
:1015A000409148025091490260914A0270914B0269
:1015B00022E089E591E00E9404046FE371E089E58F
:1015C00091E00E94A90340914C0250914D0260911C
:1015D0004E0270914F0222E089E591E00E940404DE
:1015E0006FE371E089E591E00E94A9034091500208
:1015F00050915102609152027091530222E089E5AC
:1016000091E00E94040461E471E089E591E00E94A8
:10161000A90364EF71E080E090E00E94190264EF9A
:1016200071E080E090E00E941902C0905002D090DA
:101630005102E0905202F090530220E030E040EF7F
:1016400051E4C701B6010E947C0C87FF38C061E0FD
:1016500088E00E94960160E08DE00E94960160E0C3
:101660008CE00E94960140E050E0452B09F439CD12
:101670000E94B502882309F434CD0E94000031CDC8
:101680008090860290908702A0908802B090890294
:10169000A501940169857A858B859C850E947C0CC7
:1016A00087FFC6CE80927A0290927B02A0927C0243
:1016B000B0927D02BDCEC12CD12C7601CACE20E0E5
:1016C00030E048E252E4C701B6010E94DB0D61E060
:1016D000181654F48DE00E94960160E08CE00E94A0
:1016E000960160E088E0BDCF8CE00E94960160E04A
:1016F0008DE0F5CFA981BA818D909D90AD90BC9081
:1017000080927A0290927B02A0927C02B0927D023B
:10171000E0917002F091710280819181A281B38188
:1017200080937E0290937F02A0938002B093810207
:1017300020E030E04AEF52E4C501B4010E94DB0D25
:1017400018160CF49ECC20E030E04AEF52ECC501B4
:10175000B4010E947C0C87FFBFCC40927A02509269
:101760007B0260927C0270927D02B6CCFB01DC01B0
:1017700002C005900D9241505040D8F70895052EB3
:1017800097FB1EF400940E94D60B57FD07D00E94D1
:10179000DE0B07FC03D04EF40C94D60B509540950D
:1017A000309521953F4F4F4F5F4F0895909580950D
:1017B000709561957F4F8F4F9F4F0895A1E21A2E2C
:1017C000AA1BBB1BFD010DC0AA1FBB1FEE1FFF1FE5
:1017D000A217B307E407F50720F0A21BB30BE40B35
:1017E000F50B661F771F881F991F1A9469F760957C
:1017F0007095809590959B01AC01BD01CF01089536
:10180000A29FB001B39FC001A39F700D811D112441
:10181000911DB29F700D811D1124911D0895505886
:10182000BB27AA270E94270C0C94A10D0E94930DA0
:1018300038F00E949A0D20F039F49F3F19F426F4F5
:101840000C94900D0EF4E095E7FB0C948A0DE92FB3
:101850000E94B20D58F3BA17620773078407950701
:1018600020F079F4A6F50C94D40D0EF4E0950B2E2F
:10187000BA2FA02D0B01B90190010C01CA01A001E2
:101880001124FF27591B99F0593F50F4503E68F13D
:101890001A16F040A22F232F342F4427585FF3CF7E
:1018A000469537952795A795F0405395C9F77EF44F
:1018B0001F16BA0B620B730B840BBAF09150A1F098
:1018C000FF0FBB1F661F771F881FC2F70EC0BA0F1E
:1018D000621F731F841F48F4879577956795B795A6
:1018E000F7959E3F08F0B0CF9395880F08F09927A1
:1018F000EE0F9795879508950E94660D08F481E094
:1019000008950E94950C0C94A10D0E949A0D58F018
:101910000E94930D40F029F45F3F29F00C948A0D4A
:1019200051110C94D50D0C94900D0E94B20D68F3DA
:101930009923B1F3552391F3951B550BBB27AA2788
:1019400062177307840738F09F5F5F4F220F331FC2
:10195000441FAA1FA9F335D00E2E3AF0E0E832D08A
:1019600091505040E695001CCAF72BD0FE2F29D08D
:10197000660F771F881FBB1F261737074807AB075F
:10198000B0E809F0BB0B802DBF01FF2793585F4FD4
:101990003AF09E3F510578F00C948A0D0C94D50DC9
:1019A0005F3FE4F3983ED4F3869577956795B795B6
:1019B000F7959F5FC9F7880F911D9695879597F9C1
:1019C0000895E1E0660F771F881FBB1F621773073A
:1019D0008407BA0720F0621B730B840BBA0BEE1F4F
:1019E00088F7E09508950E94FA0C6894B1110C9460
:1019F000D50D08950E94BA0D88F09F5798F0B92F21
:101A00009927B751B0F0E1F0660F771F881F991F33
:101A10001AF0BA95C9F714C0B13091F00E94D40DF4
:101A2000B1E008950C94D40D672F782F8827B85F04
:101A300039F0B93FCCF3869577956795B395D9F78B
:101A40003EF490958095709561957F4F8F4F9F4F95
:101A50000895E89409C097FB3EF4909580957095A1
:101A600061957F4F8F4F9F4F9923A9F0F92F96E9EA
:101A7000BB279395F695879577956795B795F1115F
:101A8000F8CFFAF4BB0F11F460FF1BC06F5F7F4FFC
:101A90008F4F9F4F16C0882311F096E911C077230E
:101AA00021F09EE8872F762F05C0662371F096E817
:101AB000862F70E060E02AF09A95660F771F881FE6
:101AC000DAF7880F9695879597F90895990F00088A
:101AD000550FAA0BE0E8FEEF16161706E807F90700
:101AE000C0F012161306E407F50798F0621B730B9B
:101AF000840B950B39F40A2661F0232B242B252B1C
:101B000021F408950A2609F4A140A6958FEF811DBE
:101B1000811D089597F99F6780E870E060E008955F
:101B20009FEF80EC089500240A94161617061806F5
:101B30000906089500240A941216130614060506D1
:101B40000895092E0394000C11F4882352F0BB0F62
:101B500040F4BF2B11F460FF04C06F5F7F4F8F4FC5
:101B60009F4F089557FD9058440F551F59F05F3F00
:101B700071F04795880F97FB991F61F09F3F79F0AF
:101B800087950895121613061406551FF2CF469531
:101B9000F1DF08C0161617061806991FF1CF8695B3
:101BA0007105610508940895E894BB276627772797
:101BB000CB0197F908950E94660D08F48FEF089500
:101BC0000E94F30D0C94A10D0E94930D38F00E9419
:101BD0009A0D20F0952311F00C948A0D0C94900D21
:101BE00011240C94D50D0E94B20D70F3959FC1F392
:101BF000950F50E0551F629FF001729FBB27F00DBB
:101C0000B11D639FAA27F00DB11DAA1F649F66270F
:101C1000B00DA11D661F829F2227B00DA11D621F5E
:101C2000739FB00DA11D621F839FA00D611D221F18
:101C3000749F3327A00D611D231F849F600D211DFC
:101C4000822F762F6A2F11249F5750409AF0F1F07F
:101C500088234AF0EE0FFF1FBB1F661F771F881FE8
:101C600091505040A9F79E3F510580F00C948A0D89
:101C70000C94D50D5F3FE4F3983ED4F386957795A9
:101C80006795B795F795E7959F5FC1F7FE2B880F8E
:101C9000911D9695879597F908950E94660D880B7A
:101CA000990B089597FB072E16F4009407D077FD43
:101CB00009D00E946D0E07FC05D03EF490958195E9
:101CC0009F4F0895709561957F4F08950E94000C75
:101CD000B7FF0895821B930B0895AA1BBB1B51E10C
:101CE00007C0AA1FBB1FA617B70710F0A61BB70B8C
:101CF000881F991F5A95A9F780959095BC01CD0131
:101D00000895EE0FFF1F0590F491E02D0994F894CB
:021D1000FFCF03
:101D120000000000EB024B0278023803A90287029E
:101D22009B0200000000F2044B02590358036E614B
:101D32006E00696E66006F766600536574506F6957
:101D42006E743A20005049443A2000543A20002C44
:041D5200000D0A0076
:00000001FF
